{
  "contractName": "WishingTree",
  "abi": [
    {
      "constant": false,
      "inputs": [],
      "name": "withdraw",
      "outputs": [],
      "payable": false,
      "stateMutability": "nonpayable",
      "type": "function"
    },
    {
      "constant": true,
      "inputs": [],
      "name": "owner",
      "outputs": [
        {
          "name": "",
          "type": "address"
        }
      ],
      "payable": false,
      "stateMutability": "view",
      "type": "function"
    },
    {
      "constant": false,
      "inputs": [
        {
          "name": "idx",
          "type": "uint256"
        }
      ],
      "name": "readMessage",
      "outputs": [
        {
          "name": "",
          "type": "string"
        }
      ],
      "payable": false,
      "stateMutability": "nonpayable",
      "type": "function"
    },
    {
      "constant": false,
      "inputs": [
        {
          "name": "idx",
          "type": "uint256"
        },
        {
          "name": "message",
          "type": "string"
        }
      ],
      "name": "addMessage",
      "outputs": [],
      "payable": true,
      "stateMutability": "payable",
      "type": "function"
    },
    {
      "inputs": [],
      "payable": false,
      "stateMutability": "nonpayable",
      "type": "constructor"
    }
  ],
  "bytecode": "0x60606040526001805533600260006101000a81548173ffffffffffffffffffffffffffffffffffffffff021916908373ffffffffffffffffffffffffffffffffffffffff160217905550341561005457600080fd5b61053d806100636000396000f300606060405260043610610062576000357c0100000000000000000000000000000000000000000000000000000000900463ffffffff1680633ccfd60b146100675780638da5cb5b1461007c578063a7d27056146100d1578063afa498751461016d575b600080fd5b341561007257600080fd5b61007a6101c8565b005b341561008757600080fd5b61008f6102a1565b604051808273ffffffffffffffffffffffffffffffffffffffff1673ffffffffffffffffffffffffffffffffffffffff16815260200191505060405180910390f35b34156100dc57600080fd5b6100f260048080359060200190919050506102c7565b6040518080602001828103825283818151815260200191508051906020019080838360005b83811015610132578082015181840152602081019050610117565b50505050905090810190601f16801561015f5780820380516001836020036101000a031916815260200191505b509250505060405180910390f35b6101c6600480803590602001909190803590602001908201803590602001908080601f01602080910402602001604051908101604052809392919081815260200183838082843782019150505050505091905050610381565b005b600260009054906101000a900473ffffffffffffffffffffffffffffffffffffffff168073ffffffffffffffffffffffffffffffffffffffff163373ffffffffffffffffffffffffffffffffffffffff1614151561022557600080fd5b600260009054906101000a900473ffffffffffffffffffffffffffffffffffffffff1673ffffffffffffffffffffffffffffffffffffffff166108fc3073ffffffffffffffffffffffffffffffffffffffff16319081150290604051600060405180830381858888f19350505050151561029e57600080fd5b50565b600260009054906101000a900473ffffffffffffffffffffffffffffffffffffffff1681565b6102cf610458565b6000808381526020019081526020016000208054600181600116156101000203166002900480601f0160208091040260200160405190810160405280929190818152602001828054600181600116156101000203166002900480156103755780601f1061034a57610100808354040283529160200191610375565b820191906000526020600020905b81548152906001019060200180831161035857829003601f168201915b50505050509050919050565b6001543410151561045357604051806000019050604051809103902060001916600080848152602001908152602001600020604051808280546001816001161561010002031660029004801561040e5780601f106103ec57610100808354040283529182019161040e565b820191906000526020600020905b8154815290600101906020018083116103fa575b505091505060405180910390206000191614151561042b57610454565b80600080848152602001908152602001600020908051906020019061045192919061046c565b505b5b5050565b602060405190810160405280600081525090565b828054600181600116156101000203166002900490600052602060002090601f016020900481019282601f106104ad57805160ff19168380011785556104db565b828001600101855582156104db579182015b828111156104da5782518255916020019190600101906104bf565b5b5090506104e891906104ec565b5090565b61050e91905b8082111561050a5760008160009055506001016104f2565b5090565b905600a165627a7a723058200816d0d1061e4ced1c9ae87cedea5848d6b2052d9e41c8a8d27d5a684bfedc100029",
  "source": "pragma solidity ^0.4.2;\r\n\r\ncontract WishingTree {\r\n    mapping (uint => string) messages;\r\n    uint price = 1; // unit ether\r\n    address public owner = msg.sender;\r\n    \r\n    function WishingTree() public {}modifier onlyBy(address _account) {require(msg.sender == _account);_;}\r\n    \r\n    function addMessage(uint idx, string message) payable public {\r\n        if(msg.value >= price) {\r\n            if (keccak256(messages[idx]) != keccak256(\"\")) {\r\n             // space is already taken\r\n             return;\r\n            }\r\n            messages[idx] = message;\r\n        }\r\n    }\r\n    \r\n    function readMessage(uint idx) public returns(string) {\r\n        return messages[idx];\r\n    }\r\n    \r\n    function withdraw() public \r\n    onlyBy(owner) {\r\n        owner.transfer(this.balance);\r\n    }\r\n\r\n}\r\n",
  "sourcePath": "C:\\Users\\plane\\Documents\\Projects\\makeawish\\contracts\\wishingTree.sol",
  "compiler": {
    "name": "solc",
    "version": "0.4.18+commit.9cf6e910.Emscripten.clang"
  },
  "schemaVersion": "1.0.1",
  "updatedAt": "2018-02-03T19:49:01.744Z"
}