{
  "contractName": "WishingTree",
  "abi": [
    {
      "constant": false,
      "inputs": [],
      "name": "withdraw",
      "outputs": [],
      "payable": false,
      "stateMutability": "nonpayable",
      "type": "function"
    },
    {
      "constant": false,
      "inputs": [],
      "name": "getOwner",
      "outputs": [
        {
          "name": "",
          "type": "address"
        }
      ],
      "payable": false,
      "stateMutability": "nonpayable",
      "type": "function"
    },
    {
      "constant": true,
      "inputs": [],
      "name": "owner",
      "outputs": [
        {
          "name": "",
          "type": "address"
        }
      ],
      "payable": false,
      "stateMutability": "view",
      "type": "function"
    },
    {
      "constant": false,
      "inputs": [
        {
          "name": "idx",
          "type": "uint256"
        }
      ],
      "name": "readMessage",
      "outputs": [
        {
          "name": "",
          "type": "string"
        }
      ],
      "payable": false,
      "stateMutability": "nonpayable",
      "type": "function"
    },
    {
      "constant": false,
      "inputs": [
        {
          "name": "idx",
          "type": "uint256"
        },
        {
          "name": "message",
          "type": "string"
        }
      ],
      "name": "addMessage",
      "outputs": [],
      "payable": true,
      "stateMutability": "payable",
      "type": "function"
    },
    {
      "inputs": [],
      "payable": false,
      "stateMutability": "nonpayable",
      "type": "constructor"
    }
  ],
  "bytecode": "0x60606040526001805533600260006101000a81548173ffffffffffffffffffffffffffffffffffffffff021916908373ffffffffffffffffffffffffffffffffffffffff160217905550341561005457600080fd5b6105c7806100636000396000f30060606040526004361061006d576000357c0100000000000000000000000000000000000000000000000000000000900463ffffffff1680633ccfd60b14610072578063893d20e8146100875780638da5cb5b146100dc578063a7d2705614610131578063afa49875146101cd575b600080fd5b341561007d57600080fd5b610085610228565b005b341561009257600080fd5b61009a610301565b604051808273ffffffffffffffffffffffffffffffffffffffff1673ffffffffffffffffffffffffffffffffffffffff16815260200191505060405180910390f35b34156100e757600080fd5b6100ef61032b565b604051808273ffffffffffffffffffffffffffffffffffffffff1673ffffffffffffffffffffffffffffffffffffffff16815260200191505060405180910390f35b341561013c57600080fd5b6101526004808035906020019091905050610351565b6040518080602001828103825283818151815260200191508051906020019080838360005b83811015610192578082015181840152602081019050610177565b50505050905090810190601f1680156101bf5780820380516001836020036101000a031916815260200191505b509250505060405180910390f35b610226600480803590602001909190803590602001908201803590602001908080601f0160208091040260200160405190810160405280939291908181526020018383808284378201915050505050509190505061040b565b005b600260009054906101000a900473ffffffffffffffffffffffffffffffffffffffff168073ffffffffffffffffffffffffffffffffffffffff163373ffffffffffffffffffffffffffffffffffffffff1614151561028557600080fd5b600260009054906101000a900473ffffffffffffffffffffffffffffffffffffffff1673ffffffffffffffffffffffffffffffffffffffff166108fc3073ffffffffffffffffffffffffffffffffffffffff16319081150290604051600060405180830381858888f1935050505015156102fe57600080fd5b50565b6000600260009054906101000a900473ffffffffffffffffffffffffffffffffffffffff16905090565b600260009054906101000a900473ffffffffffffffffffffffffffffffffffffffff1681565b6103596104e2565b6000808381526020019081526020016000208054600181600116156101000203166002900480601f0160208091040260200160405190810160405280929190818152602001828054600181600116156101000203166002900480156103ff5780601f106103d4576101008083540402835291602001916103ff565b820191906000526020600020905b8154815290600101906020018083116103e257829003601f168201915b50505050509050919050565b600154341015156104dd5760405180600001905060405180910390206000191660008084815260200190815260200160002060405180828054600181600116156101000203166002900480156104985780601f10610476576101008083540402835291820191610498565b820191906000526020600020905b815481529060010190602001808311610484575b50509150506040518091039020600019161415156104b5576104de565b8060008084815260200190815260200160002090805190602001906104db9291906104f6565b505b5b5050565b602060405190810160405280600081525090565b828054600181600116156101000203166002900490600052602060002090601f016020900481019282601f1061053757805160ff1916838001178555610565565b82800160010185558215610565579182015b82811115610564578251825591602001919060010190610549565b5b5090506105729190610576565b5090565b61059891905b8082111561059457600081600090555060010161057c565b5090565b905600a165627a7a7230582070b5880305495d1693f30a950a7fb818123263a0ad9d530ee024850c3cb084390029",
  "source": "pragma solidity ^0.4.2;\r\n\r\ncontract WishingTree {\r\n    mapping (uint => string) messages;\r\n    uint price = 1; // unit ether\r\n    address public owner = msg.sender;\r\n    \r\n    function WishingTree() public {}\r\n    modifier onlyBy(address _account) {require(msg.sender == _account);_;}\r\n    \r\n    function addMessage(uint idx, string message) payable public {\r\n        if(msg.value >= price) {\r\n            if (keccak256(messages[idx]) != keccak256(\"\")) {\r\n             // space is already taken\r\n             return;\r\n            }\r\n            messages[idx] = message;\r\n        }\r\n    }\r\n    \r\n    function readMessage(uint idx) public returns(string) {\r\n        return messages[idx];\r\n    }\r\n    \r\n    function withdraw() public \r\n    onlyBy(owner) {\r\n        owner.transfer(this.balance);\r\n    }\r\n\r\n    function getOwner() public returns(address) {\r\n        return owner;\r\n    }\r\n\r\n}\r\n",
  "sourcePath": "C:\\Users\\plane\\Documents\\Projects\\makeawish\\contracts\\wishingTree.sol",
  "compiler": {
    "name": "solc",
    "version": "0.4.18+commit.9cf6e910.Emscripten.clang"
  },
  "schemaVersion": "1.0.1",
  "updatedAt": "2018-02-20T02:48:13.848Z"
}