{
  "contractName": "WishingTree",
  "abi": [
    {
      "constant": false,
      "inputs": [],
      "name": "readMessages",
      "outputs": [],
      "payable": false,
      "stateMutability": "nonpayable",
      "type": "function"
    },
    {
      "constant": true,
      "inputs": [],
      "name": "owner",
      "outputs": [
        {
          "name": "",
          "type": "address"
        }
      ],
      "payable": false,
      "stateMutability": "view",
      "type": "function"
    },
    {
      "constant": false,
      "inputs": [
        {
          "name": "idx",
          "type": "uint256"
        }
      ],
      "name": "readMessage",
      "outputs": [
        {
          "name": "",
          "type": "string"
        }
      ],
      "payable": false,
      "stateMutability": "nonpayable",
      "type": "function"
    },
    {
      "constant": false,
      "inputs": [
        {
          "name": "idx",
          "type": "uint256"
        },
        {
          "name": "message",
          "type": "string"
        }
      ],
      "name": "addMessage",
      "outputs": [],
      "payable": true,
      "stateMutability": "payable",
      "type": "function"
    },
    {
      "inputs": [],
      "payable": false,
      "stateMutability": "nonpayable",
      "type": "constructor"
    }
  ],
  "bytecode": "0x60606040526001805533600260006101000a81548173ffffffffffffffffffffffffffffffffffffffff021916908373ffffffffffffffffffffffffffffffffffffffff160217905550341561005457600080fd5b610466806100636000396000f300606060405260043610610062576000357c0100000000000000000000000000000000000000000000000000000000900463ffffffff16806319dccf0e146100675780638da5cb5b1461007c578063a7d27056146100d1578063afa498751461016d575b600080fd5b341561007257600080fd5b61007a6101c8565b005b341561008757600080fd5b61008f6101ca565b604051808273ffffffffffffffffffffffffffffffffffffffff1673ffffffffffffffffffffffffffffffffffffffff16815260200191505060405180910390f35b34156100dc57600080fd5b6100f260048080359060200190919050506101f0565b6040518080602001828103825283818151815260200191508051906020019080838360005b83811015610132578082015181840152602081019050610117565b50505050905090810190601f16801561015f5780820380516001836020036101000a031916815260200191505b509250505060405180910390f35b6101c6600480803590602001909190803590602001908201803590602001908080601f016020809104026020016040519081016040528093929190818152602001838380828437820191505050505050919050506102aa565b005b565b600260009054906101000a900473ffffffffffffffffffffffffffffffffffffffff1681565b6101f8610381565b6000808381526020019081526020016000208054600181600116156101000203166002900480601f01602080910402602001604051908101604052809291908181526020018280546001816001161561010002031660029004801561029e5780601f106102735761010080835404028352916020019161029e565b820191906000526020600020905b81548152906001019060200180831161028157829003601f168201915b50505050509050919050565b6001543410151561037c5760405180600001905060405180910390206000191660008084815260200190815260200160002060405180828054600181600116156101000203166002900480156103375780601f10610315576101008083540402835291820191610337565b820191906000526020600020905b815481529060010190602001808311610323575b50509150506040518091039020600019161415156103545761037d565b80600080848152602001908152602001600020908051906020019061037a929190610395565b505b5b5050565b602060405190810160405280600081525090565b828054600181600116156101000203166002900490600052602060002090601f016020900481019282601f106103d657805160ff1916838001178555610404565b82800160010185558215610404579182015b828111156104035782518255916020019190600101906103e8565b5b5090506104119190610415565b5090565b61043791905b8082111561043357600081600090555060010161041b565b5090565b905600a165627a7a72305820e00dee62ad3ffdc180294de944c74e6dacae494c58095d8bfff11192584381ff0029",
  "source": "pragma solidity ^0.4.2;\r\n\r\ncontract WishingTree {\r\n    mapping (uint => string) messages;\r\n    uint price = 1; // unit ether\r\n    address public owner = msg.sender;\r\n    \r\n    function WishingTree() public {}modifier onlyBy(address _account) {require(msg.sender == _account);_;}\r\n    \r\n    function addMessage(uint idx, string message) payable public {\r\n        if(msg.value >= price) {\r\n            if (keccak256(messages[idx]) != keccak256(\"\")) {\r\n             // space is already taken\r\n             return;\r\n            }\r\n            messages[idx] = message;\r\n        }\r\n    }\r\n    \r\n    function readMessage(uint idx) public returns(string) {\r\n        return messages[idx];\r\n    }\r\n    \r\n    function readMessages() public {}\r\n    \r\n    // event Transaction(string _type, address indexed user);\r\n    // function StockExchange() {\r\n        // holdings = 10000;\r\n        // }\r\n        // function buy() payable {\r\n            // if(msg.value == 1 ether) {\r\n                // balances[msg.sender] += 1;\r\n                // holdings -= 1;\r\n                // Transaction(\\\"Buy321\\\",msg.sender);\r\n                // }\r\n                // }\r\n                // function sell() {\r\n                    // balances[msg.sender] -= 1;\r\n                    // holdings += 1;\r\n                    // msg.sender.transfer(1 ether);\r\n                    // Transaction(\\\"Sell\\\",msg.sender);\r\n                    // }\r\n                    // function getBalance(address addr) returns(uint) {\r\n                        // return balances[addr];\r\n                        // }\r\n                        // function getHoldings() returns(uint) {\r\n                            // return holdings;\r\n                            // }\r\n}\r\n",
  "sourcePath": "C:\\Users\\plane\\Documents\\Projects\\makeawish\\contracts\\wishingTree.sol",
  "compiler": {
    "name": "solc",
    "version": "0.4.18+commit.9cf6e910.Emscripten.clang"
  },
  "schemaVersion": "1.0.1",
  "updatedAt": "2018-01-26T02:43:54.287Z"
}